:1000000000000320D9040000250500002905000098
:10001000210500002105000021050000000000006E
:10002000000000000000000000000000211B000094
:100030002105000000000000311D0000A11D00008E
:10004000390500003D0500004105000045050000A0
:10005000490500004D050000510500005505000050
:10006000590500005D050000610500006505000000
:10007000690500006D0500007105000075050000B0
:100080007905000021050000210500002105000080
:1000900021050000210500002105000021050000C8
:1000A0007D05000081050000850500008905000030
:1000B0008D050000910500009505000099050000E0
:1000C0009D050000A1050000A5050000A905000090
:1000D000AD050000B1050000B505000021050000D8
:1000E0002105000021050000210500002105000078
:1000F0002105000021050000210500002105000068
:100100002105000021050000210500002105000057
:100110002105000021050000210500002105000047
:100120002105000021050000210500002105000037
:1001300021050000B111000021050000210500008B
:1001400021050000B9050000BD050000C105000043
:10015000C5050000C90500002105000021050000BB
:100160002105000021050000CD050000D10500009B
:10017000D5050000D9050000DD050000E1050000FF
:10018000E5050000E9050000995C0000395C00000D
:10019000595C0000795C0000210500002105000089
:1001A00021050000210500002105000021050000B7
:1001B00021050000210500002105000021050000A7
:1001C0002105000021050000210500002105000097
:1001D0002105000021050000210500002105000087
:1003F000210500002105000021050000FFFFFFFF8F
:10040000FFFFFFFFFFFFFFFFFFFFFFFFFEFFFFFFFD
:1004100010B5054C237833B9044B13B10448AFF33E
:1004200000800123237010BD8000FF1F000000002A
:100430002C79000008B5064B1BB106480649AFF3FE
:1004400000800648036813B1054B03B1984708BD07
:10045000000000002C7900008400FF1F7C00FF1FBB
:1004600000000000154B002B08BF134B9D46A3F561
:10047000803A00218B460F461348144A121A06F0A0
:1004800006FA0F4B002B00D098470E4B002B00D0E4
:1004900098470020002104000D000D48002802D0DC
:1004A0000C48AFF3008006F0C3F92000290000F0EB
:1004B0001FFD06F0A9F900BF00000800000003209E
:1004C00000000000000000008000FF1F0C46FF1F1E
:1004D000000000000000000072B60A480A490160EE
:1004E0000A6882F30888094880470949094A0A4B83
:1004F0009A42BEBF51F8040B42F8040BF8E762B60B
:100500000648804708ED00E000000000CD670000CD
:10051000547900000000FF1F8000FF1F65040000E9
:10052000FFF7FEBF354800473548004735480047CC
:1005300035480047354800473548004735480047AB
:10054000354800473548004735480047354800479B
:10055000354800473548004735480047354800478B
:10056000354800473548004735480047354800477B
:10057000354800473548004735480047354800476B
:10058000354800473548004735480047354800475B
:10059000354800473548004735480047354800474B
:1005A000354800473548004735480047354800473B
:1005B000354800473548004735480047354800472B
:1005C000354800473548004735480047354800471B
:1005D0003548004734480047334800473248004711
:1005E000314800473048004730480047304800470E
:1005F0003048004730480047304800472505000094
:1006000029050000211B0000311D0000A11D000074
:10061000F95A00000D5B0000215B0000355B000013
:10062000495B00005D5B0000715B0000855B0000C2
:10063000995B0000AD5B0000C15B0000D55B000072
:10064000E95B0000FD5B0000115C0000255C000020
:1006500021050000F15D00000D5E0000E95800007A
:1006600025590000455E0000895E0000210500005C
:1006700025640000210500005164000021050000F0
:100680007D64000021050000A96400002105000030
:1006900061590000D56400002105000001650000DB
:1006A00021050000295E0000B95C0000CD5E00005D
:1006B00021050000210500002105000021050000A2
:1006C00080B483B000AF78600B46FB70FB78002BE2
:1006D00008D07B68DB78DBB243F00803DAB27B68D2
:1006E000DA7007E07B68DB78DBB223F00803DAB26C
:1006F0007B68DA700C37BD465DF8047B704700BF3D
:1007000080B483B000AF78600B46FB70FB78002BA1
:1007100008D07B68DB78DBB243F00403DAB27B6895
:10072000DA7007E07B68DB78DBB223F00403DAB22F
:100730007B68DA700C37BD465DF8047B704700BFFC
:1007400080B588B000AFF860B9603B601346FB71BC
:100750001D4B1B78002B01D0012330E01A4BFA7996
:100760001A70FB79012B01D0062B27D1FA68164BA2
:100770005A6007F11403184605F080FDBB687B61E1
:10078000114B5A6807F11403104619463A6805F0F0
:1007900009FC0D4B5B6818460121FFF791FF0A4BDE
:1007A0005B6818460121FFF7ABFF074B074A9A60C9
:1007B000054B074ADA6000BF002300E00423184617
:1007C0002037BD4680BD00BF9C00FF1F2163000095
:1007D000616300000FB480B582B000AF0B4B1B7893
:1007E000002B02D14FF0FF3309E007F114033B6007
:1007F000074839693A6800F0D5F878607B68184690
:100800000837BD46BDE8804004B070479C00FF1F1C
:100810001508000080B582B000AF78600A4B1B78E5
:10082000002B02D14FF0FF3309E0074B9B68064ACB
:1008300051683A1D0846114601229847012318467F
:100840000837BD4680BD00BF9C00FF1F80B586B045
:1008500000AFB9607A603B600346FB73BB687B61A5
:100860000CE097F90F203B6A104698473B681B68DD
:100870005A1C3B681A607B6901337B617A697B682B
:100880009A42EEDB1837BD4680BD00BF80B48DB004
:1008900000AFF860B9607A603B600023FB61FB68E1
:1008A000BB61BB695A1CBA6100221A707B68002BBD
:1008B00036D0BB681B68FB62FB6A002B07D1BB69A3
:1008C00030221A70FB690133FB61FB6964E023E0AD
:1008D000FA6A3B6892FBF3F37B617B693A6802FB3F
:1008E00003F3FA6AD31ABB62BB6A002B06DABB6A4F
:1008F0003B623B6AC3F13003BB6202E0BB6A303348
:10090000BB627B69FB62BB695A1CBA61BA6AD2B22C
:100910001A70FB690133FB61FB6A002BD8D13AE006
:10092000BB681B687B627B6A002B07D1BB693022E6
:100930001A70FB690133FB61FB692DE028E03B681D
:100940007A6AB2FBF3F33B613B683A6902FB03F35B
:100950007A6AD31A3B623B6A092B03D83B6A30336D
:100960003B620AE097F83830002B01D0412300E0C9
:1009700061233A6A13440A3B3B623B697B62BB6971
:100980005A1CBA613A6AD2B21A70FB690133FB6130
:100990007B6A002BD3D1FB6918463437BD465DF81E
:1009A000047B704780B59CB002AFF860B9607A6094
:1009B00000233B660023FB650023BB61002387F80F
:1009C0004A3000233B61BB687B6693E17B6C252B3F
:1009D00006D0FB68786C9847BB690133BB6186E140
:1009E000012387F84B3000237B650023BB651CE0A7
:1009F0007B6E01337B667B6E1B785BB27B647B6CAA
:100A00002F2B0DDD7B6C392B0ADC7A6D13469B0096
:100A100013445B001A467B6C1344303B7B6504E057
:100A20007B6E013B7B660123BB65BB6D002BDFD07A
:100A300006233B657B6E01337B667B6E1B785BB266
:100A40002E2B25D100233B650023BB651CE07B6E6C
:100A500001337B667B6E1B785BB27B647B6C2F2BD8
:100A60000DDD7B6C392B0ADC3A6D13469B00134479
:100A70005B001A467B6C1344303B3B6504E07B6EA5
:100A8000013B7B660123BB65BB6D002BDFD002E021
:100A90007B6E013B7B667B6E01337B667B6E1B78D6
:100AA0005BB27B647B6C642B1BD07B6C692B18D096
:100AB0007B6C662B15D07B6C462B12D07B6C782B15
:100AC0000FD07B6C582B0CD07B6C6F2B09D07B6CC0
:100AD000622B06D07B6C702B03D07B6C752B40F0A7
:100AE000C5807B6C642B02D07B6C692B17D17B6833
:100AF0001A1D7A601B687B6107F11C0207F1140361
:100B000097F84B1000911046194601220A23FFF76F
:100B1000BDFEF86507F11C02FB6D13443B667B6C60
:100B2000582B02D07B6C782B1DD17B6C782B02D19B
:100B3000002387F84B307B681A1D7A601B683B6185
:100B400007F11C0207F1100397F84B1000911046B3
:100B5000194600221023FFF799FEF86507F11C02E1
:100B6000FB6D13443B667B6C6F2B08D07B6C622B58
:100B700005D07B6C702B02D07B6C752B59D17B68B8
:100B80001A1D7A601B683B617B6C623B132B3BD860
:100B900001A252F823F000BFF10B0000090C000085
:100BA000090C0000090C0000090C0000090C0000F1
:100BB000090C0000090C0000090C0000090C0000E1
:100BC000090C0000090C0000090C0000E90B0000F2
:100BD000F90B0000090C0000090C0000090C0000D2
:100BE000090C0000010C0000082387F84A300CE0D3
:100BF000022387F84A3008E0102387F84A3004E0DF
:100C00000A2387F84A3000E000BF97F84A3007F11E
:100C10001C0107F1100297F84B000090084611469E
:100C20000022FFF733FEF86507F11C02FB6D134449
:100C30003B667A6D07F11803F96800912020F96D81
:100C4000FFF704FE3B6E002B0FD00AE03B6E5A1EEE
:100C50003A661B785AB2FB6810469847BB69013365
:100C6000BB613B6E1B78002BF0D140E07B6C632BAB
:100C70000DD17B681A1D7A601B68DBB25BB23B64E6
:100C8000FB68386C9847BB690133BB612FE07B6C14
:100C9000732B26D17B681A1D7A601B68FB64FB6C82
:100CA000002B24D0F86C05F0FAFD0346FB657A6D45
:100CB00007F11803F96800912020F96DFFF7C6FDD0
:100CC0000AE0FB6C5A1CFA641B785AB2FB681046A7
:100CD0009847BB690133BB61FB6C1B78002BF0D1DB
:100CE00005E0FB68786C9847BB690133BB617B6E9C
:100CF00001337B667B6E1B785BB27B647B6C002B65
:100D00007FF464AEBB6918466837BD4680BD00BF3E
:100D100080B483B000AF0346FB71084B97F90720FE
:100D20005209F97901F01F01012000FA01F143F89D
:100D300022100C37BD465DF8047B704700E100E0EF
:100D400080B483B000AF03463960FB7197F9073078
:100D5000002B0BDA0D49FB7903F00F03043B3A68D3
:100D6000D2B21201D2B20B441A7609E0084997F9BF
:100D700007303A68D2B21201D2B20B4483F8002392
:100D80000C37BD465DF8047B704700BF00ED00E006
:100D900000E100E080B485B000AF78607B681B0C98
:100DA00003F1804303F58E23FB60FB68FA6811684A
:100DB0007A6892B2012000FA02F20A431A601437EC
:100DC000BD465DF8047B704780B582B000AF034636
:100DD000FB7197F9073013F1800F00D104E097F908
:100DE00007301846FFF794FF0837BD4680BD00BFA7
:100DF00080B485B000AFF860B9601346FB71FB7931
:100E0000002B05D1BB6801229A40FB689A6004E080
:100E1000BB6801229A40FB685A601437BD465DF8F2
:100E2000047B704780B483B000AF786039607B6822
:100E30003A68DA600C37BD465DF8047B704700BF46
:100E400080B483B000AF786039607B681A693B6812
:100E500022FA03F303F0010318460C37BD465DF890
:100E6000047B704780B485B000AFF860B96013466A
:100E7000FB71FB68BA6853F8223023F4E062FB7917
:100E80001B0203F4E06342EA0301FB68BA6843F81B
:100E900022101437BD465DF8047B704780B485B0DE
:100EA00000AFF860B9601346FB71FB68BA6853F88D
:100EB000223023F47022FB791B0403F4702342EAEE
:100EC0000301FB68BA6843F822101437BD465DF889
:100ED000047B704780B483B000AF786039607B6872
:100EE0003A68C3F8A0200C37BD465DF8047B704714
:100EF00080B582B002AF05F003FC05F053FB05F0AE
:100F000005FB264816210122FFF7ACFF23481521D7
:100F10000122FFF7A7FF224816210122FFF768FFF1
:100F20001F4B1F4A526942F480025A611C48152126
:100F30000122FFF75DFF1A4B194A526942F4001271
:100F40005A6101200021032200F0F8FF0246154BF0
:100F50001A60144B1B68002B1DD000F0FFF80A200C
:100F6000082100F09FF802230093002301930E480C
:100F70000E494FF48072002301F058FF03230093C1
:100F8000002301930A480B494FF48072002301F0BB
:100F90004DFF02F0E9F800BFFDE700BF00A00440EC
:100FA00040F00F40B000FF1FB90F0000B468000010
:100FB00005100000C468000080B586B000AF7860FE
:100FC00019233B6100233B7207F11003FB604FF4D0
:100FD000FA737B61094B1A6807F10803104619463A
:100FE0000022002301F01CF805484FF48001FFF7B0
:100FF00019FF786902F082F8ECE700BFAC00FF1F30
:1010000040F00F4080B588B000AF786001233B739B
:101010000123FB611F4B1B68184600214FF0FF3274
:10102000002301F06DFBFB699B00184600F08CFA71
:1010300078617B69184A12881A800023BB610BE033
:10104000786905F02CFC03467A691344124A128829
:101050001A80BB690133BB61BA69FB69013B9A42E3
:10106000EED37B693B610D4B1A6807F10C03104608
:1010700019460022002300F0D3FF09484FF4001165
:10108000FFF7D0FE786900F027FBFB690133FB61B5
:10109000C0E700BFB000FF1FD8680000AC00FF1F12
:1010A00040F00F4080B584B002AF78603960786856
:1010B0003968002200F042FF0246084B1A60012303
:1010C000009300230193064806494FF480720023E1
:1010D00001F0ACFE0837BD4680BD00BFAC00FF1F6D
:1010E000E9100000DC68000080B588B000AF7860CF
:1010F0000023FB61154B1A6807F10C0310461946D3
:101100004FF0FF32002301F0FBFA3B7B002B02D0B3
:10111000012B0AD011E03B69BB61BB691B680C481D
:10112000F9691A46FFF756FB0CE03B697B610948F9
:10113000F9697A69FFF74EFB04E00648F969064A47
:10114000FFF748FBFB690133FB61D3E7AC00FF1FEE
:10115000EC680000006900001069000080B582B0F2
:1011600000AF1048FFF716FE0F4806210122FFF7D7
:1011700079FE0D4806210A22FFF790FE3D2002214C
:10118000FFF7DEFD3D20FFF71FFE00233B7100232C
:101190007B713B1D054806211A4604F0C9FD08373E
:1011A000BD4680BD0B00381000B0044080F00F40F9
:1011B00080B582B000AF10484021FFF78BFE0F488A
:1011C0000621FFF73DFE786000233B600C4B1A6858
:1011D0003B461046194601F0B5F93B68002B07D095
:1011E000084B4FF080521A60BFF34F8FBFF36F8FE1
:1011F0000837BD4680BD00BF00B0044080F00F40FE
:10120000B000FF1F04ED00E080B483B000AF204BBE
:101210007B607B6803221A617B6803225A617B68CA
:101220001C4A9A617B681C4ADA617B6840221A6218
:101230007B6800229A627B6800225A627B680022E7
:10124000DA627B68134A1A667B68144A5A667B68BE
:1012500010229A667B6800221A677B680022DA6691
:101260007B6800225A677B6807330D4A1068186054
:101270007B680C4A106818609188927999809A71FD
:101280007B6820229A710C37BD465DF8047B70475D
:101290008831FF1F28690000B400FF1FF400FF1F02
:1012A000346900003869000080B588B000AFF8608C
:1012B000B9607A600023BB61FB68DB687B61FB6817
:1012C0001B693B613A697B699A4205D93A697B6936
:1012D000D31A013BFB6107E0FB689A6839697B69B7
:1012E000CB1A1344013BFB61FB689A687B69D31AF4
:1012F000FA699A4238BF1346FB61FA697B689A42E1
:1013000038BF1346FB61FB685A687B691344184673
:10131000B968FA6905F0B2FABA69FB691344BB61AE
:10132000BA68FB691344BB607A68FB69D31A7B60B7
:101330007A69FB6913447B61FB689A687B699A420E
:1013400001D100237B61FB687A69DA607B68002B3E
:10135000B5D1BB6918462037BD4680BD80B588B081
:1013600000AFF860B9607A60FB68DB68FB61FB681E
:101370009A68FB69D31ABB61BA697B689A420ED935
:10138000FB685A68FB6913441846B9687A6805F027
:1013900075FAFA697B681A44FB68DA601BE0BB697E
:1013A0007B61FB685A68FB6913441846B9687A691F
:1013B00005F064FA7A68BB69D31A7B61FB685A68E6
:1013C000B968BB690B44104619467A6905F056FAAC
:1013D000FB687A69DA602037BD4680BD80B487B08B
:1013E00000AF78607B681B693B617B68DB68FB60F2
:1013F0003A69FB689A4208D87B689A68FB68D21AF7
:101400003B691344013B7B6104E03A69FB68D31AF2
:10141000013B7B617B6918461C37BD465DF8047B48
:10142000704700BF80B588B000AFF860B9607A60DF
:10143000BB68BB61FB685A1C13465B001344DB00AE
:101440001E4A13447B617B695B69012B17D0012B1A
:1014500002D3022B23D029E07869FFF7BFFF386160
:101460003A697B689A4202D20023FB6121E07B68E3
:10147000FB617869B9697A68FFF770FF19E07869EC
:10148000FFF7ACFF38617A683B699A4238BF134670
:10149000FB617869B969FA69FFF760FF09E078696B
:1014A000B9697A68FFF700FFF86102E00023FB6189
:1014B00000BFFB6918462037BD4680BD8831FF1F3D
:1014C00080B586B000AFF860B9607A600D4B1B78CC
:1014D000002B01D1FFF798FEEFF311834FF02001AD
:1014E00081F311887B61F868B9687A68FFF79AFF21
:1014F00038617B6983F311883B6918461837BD460C
:1015000080BD00BF8831FF1F80B400AF094B0A4A7D
:1015100011680A4AA2FB01029209013A1A60084BBB
:1015200000221A60074B07221A60BD465DF8047B53
:10153000704700BF14E000E01800FF1FD34D621099
:1015400018E000E010E000E080B58AB000AF7860FD
:101550000023FB6101F052FE5A4B1B68002B01D1A6
:1015600000F01AF9584B1A687B681340002B40F0C2
:101570008C807B68002B1CD008237A6813447B6026
:101580007B6803F00703002B13D07B6823F007036D
:1015900008337B607B6803F00703002B09D04FF012
:1015A000200383F31188BFF36F8FBFF34F8F7B61ED
:1015B000FEE77B68002B68D0444B1B687A689A4230
:1015C00063D8434B3B62424B1B687B6204E07B6AFF
:1015D0003B627B6A1B687B627B6A5A687B689A42C3
:1015E00003D27B6A1B68002BF1D1364B1B687A6AE9
:1015F0009A424AD03B6A1A6808231344FB617B6A0B
:101600001A683B6A1A607B6A5A687B68D21A082398
:101610005B009A421ED97A6A7B681344BB61BB693E
:1016200003F00703002B09D04FF0200383F3118848
:10163000BFF36F8FBFF34F8F3B61FEE77B6A5A6842
:101640007B68D21ABB695A607B6A7A685A60B8694B
:1016500000F004F91D4B1A687B6A5B68D21A1B4BB9
:101660001A601A4B1A681B4B1B689A4203D2174B1D
:101670001A68184B1A607B6A5A68134B1B681A4326
:101680007B6A5A607B6A00221A60FB69382019461F
:101690007A6803F06BF901F0BFFDFB6903F0070303
:1016A000002B09D04FF0200383F31188BFF36F8F15
:1016B000BFF34F8FFB60FEE7FB6918462837BD4636
:1016C00080BD00BF0C29FF1F1829FF1F1029FF1F15
:1016D0000429FF1F1429FF1F80B586B000AF786072
:1016E0007B687B617B68002B4FD008235B427A6963
:1016F00013447B617B693B613B695A68244B1B68DF
:101700001340002B09D14FF0200383F31188BFF35E
:101710006F8FBFF34F8FFB60FEE73B691B68002BA9
:1017200009D04FF0200383F31188BFF36F8FBFF30D
:101730004F8FBB60FEE73B695A68154B1B6813402F
:10174000002B22D03B691B68002B1ED13B695A68D5
:101750000F4B1B68DB431A403B695A6001F04EFD9A
:101760003B695A680B4B1B681A440A4B1A607A682B
:101770003B695B685B42392011461A4603F0F6F874
:10178000386900F06BF801F047FD1837BD4680BDA1
:101790001829FF1F1029FF1F80B485B000AF4FF438
:1017A0002053BB60274BFB60FB6803F00703002B53
:1017B0000CD0FB680733FB60FB6823F00703FB607A
:1017C000BA68FB68D21A1F4B1344BB60FB687B608E
:1017D0001D4B7A681A601C4B00225A607A68BB68FD
:1017E0001344FB600823FA68D31AFB60FB6823F0FC
:1017F0000703FB60FA68154B1A60144B1B68002244
:101800005A60124B1B6800221A607B683B603B6881
:10181000FA68D21A3B685A600C4B1A683B681A6027
:101820003B685A680A4B1A603B685A68094B1A6051
:10183000094B4FF000421A601437BD465DF8047B37
:10184000704700BF0401FF1F0429FF1F0C29FF1F61
:101850001429FF1F1029FF1F1829FF1F80B485B00E
:1018600000AF7860274BFB6002E0FB681B68FB6001
:10187000FB681A687B689A42F7D3FB68BB60FB6819
:101880005B68BA681A447B689A4208D1FB685A6858
:101890007B685B681A44FB685A60FB687B607B6806
:1018A000BB607B685B68BA681A44FB681B689A4235
:1018B00018D1FB681A68144B1B689A420DD07B68DC
:1018C0005A68FB681B685B681A447B685A60FB684F
:1018D0001B681A687B681A6008E00B4B1A687B6803
:1018E0001A6003E0FB681A687B681A60FA687B6814
:1018F0009A4202D0FB687A681A601437BD465DF8D8
:10190000047B70470429FF1F0C29FF1F80B483B09C
:1019100000AF78607B6803F108027B685A607B68DF
:101920004FF0FF329A607B6803F108027B68DA604F
:101930007B6803F108027B681A617B6800221A60E9
:101940000C37BD465DF8047B704700BF80B483B0A0
:1019500000AF78607B6800221A610C37BD465DF8E5
:10196000047B704780B485B000AF786039607B68D5
:101970005B68FB603B68FA685A60FB689A683B6882
:101980009A60FB689B683A685A60FB683A689A609C
:101990003B687A681A617B681B685A1C7B681A600E
:1019A0001437BD465DF8047B704700BF80B485B036
:1019B00000AF786039603B681B68BB60BB68B3F1FF
:1019C000FF3F03D17B681B69FB600CE07B68083339
:1019D000FB6002E0FB685B68FB60FB685B681A68A1
:1019E000BB689A42F6D9FB685A683B685A603B6804
:1019F0005B683A689A603B68FA689A60FB683A6884
:101A00005A603B687A681A617B681B685A1C7B685D
:101A10001A601437BD465DF8047B704780B485B00A
:101A200000AF78607B681B69FB607B685B687A68E5
:101A300092689A607B689B687A6852685A60FB6813
:101A40005A687B689A4203D17B689A68FB685A603F
:101A50007B6800221A61FB681B685A1EFB681A60CB
:101A6000FB681B6818461437BD465DF8047B704759
:101A700080B485B000AFF860B9607A60FB68043B61
:101A8000FB60FB684FF080721A60FB68043BFB60F0
:101A9000BB6823F00102FB681A60FB68043BFB6033
:101AA0000C4AFB681A60FB68143BFB607A68FB68B1
:101AB0001A60FB68043BFB60FB686FF002021A606F
:101AC000FB68203BFB60FB6818461437BD465DF899
:101AD000047B7047D91A000080B483B000AF0C4B70
:101AE0001B68B3F1FF3F09D04FF0200383F3118847
:101AF000BFF36F8FBFF34F8F7B60FEE74FF0200384
:101B000083F31188BFF36F8FBFF34F8F3B60FEE706
:101B10000000FF1F000000000000000000000000A7
:101B2000074B19680868B0E8F04F80F30988BFF3E5
:101B30006F8F4FF0000080F311887047AFF3008083
:101B40002429FF1FAFF30080AFF30080AFF30080C4
:101B500006480068006880F3088862B661B6BFF383
:101B60004F8FBFF36F8F00DF00BF000008ED00E074
:101B700080B586B000AF3B4B1A683B4B9A4209D107
:101B80004FF0200383F31188BFF36F8FBFF34F8FA4
:101B90003B61FEE7334B1A68344B9A4209D14FF050
:101BA000200383F31188BFF36F8FBFF34F8FFB6068
:101BB000FEE72F4B7B617B691B78DBB2BB607B69E7
:101BC000FF221A707B691B78DBB2FB71FB79DBB2F9
:101BD00003F02003DAB2274B1A70274B07221A6052
:101BE00009E0254B1B685A1E234B1A60FB79DBB2B8
:101BF0005B00DBB2FB71FB79DBB2DBB25BB2002BCB
:101C0000EFDB1D4B1B681A021B4B1A601A4B1B683B
:101C100003F4E062184B1A60BB68DAB27B691A7091
:101C2000164B164A126842F470021A60134B134A9C
:101C3000126842F070421A60FFF766FC104B0022F7
:101C40001A6000F0CDF80F4B0E4A126842F0404285
:101C50001A60FFF77DFFFFF73FFF00231846183794
:101C6000BD4680BD00ED00E071C20F4170C20F4162
:101C700000E400E01C29FF1F2029FF1F20ED00E0E9
:101C80000000FF1F34EF00E080B483B000AF4FF0DE
:101C9000200383F31188BFF36F8FBFF34F8F7B60F7
:101CA0000E4B1B685A1C0D4B1A600C4B1B68012B0A
:101CB0000ED10B4B1B68DBB2002B09D04FF0200379
:101CC00083F31188BFF36F8FBFF34F8F3B60FEE745
:101CD0000C37BD465DF8047B704700BF0000FF1F56
:101CE00004ED00E080B483B000AF104B1B68002B04
:101CF00009D14FF0200383F31188BFF36F8FBFF337
:101D00004F8F7B60FEE7094B1B685A1E074B1A601A
:101D1000064B1B68002B04D100233B603B6883F318
:101D200011880C37BD465DF8047B70470000FF1F2B
:101D3000EFF30980BFF36F8F154B1A681EF0100F79
:101D400008BF20ED108A20E9F04F10604DF8043DE7
:101D50004FF0200080F31188BFF34F8FBFF36F8FD8
:101D600001F0D8FB4FF0000080F3118808BC19681F
:101D70000868B0E8F04F1EF0100F08BFB0EC108AF2
:101D800080F30988BFF36F8F704700BFAFF3008007
:101D90002429FF1FAFF30080AFF30080AFF3008072
:101DA00080B582B000AF4FF0200383F31188BFF3FA
:101DB0006F8FBFF34F8F7B6001F0DEFA0346002B7D
:101DC00003D0064B4FF080521A6000233B603B6803
:101DD00083F311880837BD4680BD00BF04ED00E0E5
:101DE000DFF80C00016841F47001016070470000E9
:101DF00088ED00E080B485B000AFEFF30583FB60B1
:101E0000FB680F2B13D9154AFB6813441B78FB7230
:101E1000134B1B78FA7A9A4209D24FF0200383F3CE
:101E20001188BFF36F8FBFF34F8F7B60FEE70D4BC1
:101E30001B6803F4E0620C4B1B689A4209D94FF00F
:101E4000200383F31188BFF36F8FBFF34F8F3B6085
:101E5000FEE71437BD465DF8047B7047F0E300E011
:101E60001C29FF1F0CED00E02029FF1F80B584B066
:101E700000AF786039607B68FB60FB68002B09D19C
:101E80004FF0200383F31188BFF36F8FBFF34F8FA1
:101E9000BB60FEE7FFF7F8FEFB681A68FB68DB6BC8
:101EA000F968096C01FB03F31A44FB685A60FB688C
:101EB00000229A63FB681A68FB689A60FB681A68DC
:101EC000FB68DB6B013BF968096C01FB03F31A4407
:101ED000FB68DA60FB68FF2283F84420FB68FF227E
:101EE00083F845203B68002B14D1FB681B69002B4D
:101EF0001AD0FB681033184601F0CCFB0346002BC8
:101F000012D00D4B4FF080521A60BFF34F8FBFF3CA
:101F10006F8F09E0FB6810331846FFF7F7FCFB688A
:101F200024331846FFF7F2FCFFF7DCFE01231846C6
:101F30001037BD4680BD00BF04ED00E080B58AB01B
:101F400002AFF860B9601346FB71FB68002B09D142
:101F50004FF0200383F31188BFF36F8FBFF34F8FD0
:101F60003B61FEE7BB68002B02D10023FB6104E06C
:101F7000FB68BA6802FB03F3FB61FB695033184648
:101F8000FFF7E2FAB861BB69002B0AD0BB69503396
:101F90007B61FB79BA690092F868B9687A6900F0E8
:101FA00005F8BB6918462037BD4680BD80B584B0B2
:101FB00000AFF860B9607A60FB70BB68002B03D19A
:101FC000BB69BA691A6002E0BB697A681A60BB69CA
:101FD000FA68DA63BB69BA681A64B8690121FFF765
:101FE00045FFBB69FA7883F84C20BB6993F84C3005
:101FF000002B02D0032B09D00EE0BA69BB69DB6B62
:10200000112011461A4602F0B1FC05E0BB6912200E
:10201000194602F05FFC00BF1037BD4680BD00BF0F
:1020200080B58EB000AFF860B9607A603B60002385
:102030007B63FB683B633B6B002B09D14FF02003B4
:1020400083F31188BFF36F8FBFF34F8FBB62FEE73F
:10205000BB68002B03D13B6B1B6C002B01D1012310
:1020600000E00023002B09D14FF0200383F31188F7
:10207000BFF36F8FBFF34F8F7B62FEE73B68022B8E
:1020800003D13B6BDB6B012B01D1012300E000236B
:10209000002B09D14FF0200383F31188BFF36F8F1A
:1020A000BFF34F8F3B62FEE701F0BAFC0346002B03
:1020B00002D17B68002B01D1012300E00023002B1B
:1020C00009D14FF0200383F31188BFF36F8FBFF363
:1020D0004F8FFB61FEE7FFF7D7FD3B6B9A6B3B6BC6
:1020E000DB6B9A4202D33B68022B59D13B6B93F8CE
:1020F0004C30042B2AD801A252F823F01121000001
:10210000412100002D2100002D210000412100006F
:102110003B68002B01D1502300E0C023396B3A6BA0
:10212000926B0132184602F021FC0EE03A6B3B6BD9
:102130009B6B0133512011461A4602F017FC04E054
:102140003B6B5220194602F0C5FB00BF386BB968E3
:102150003A6800F0F5FCF8623B6B5B6A002B10D02C
:102160003B6B2433184601F095FA0346002B13D03D
:10217000874B4FF080521A60BFF34F8FBFF36F8FC2
:102180000AE0FB6A002B07D0814B4FF080521A60A7
:10219000BFF34F8FBFF36F8FFFF7A4FD0123F2E072
:1021A0007B68002B32D1FFF79DFD3B6B93F84C30E1
:1021B000042B29D801A252F823F000BFD12100003E
:1021C000FD210000EB210000EB210000FD210000BB
:1021D0003B68002B01D1532300E0C123396B3A6BDC
:1021E000926B184602F0C2FB0DE03A6B3B6B9B6BA7
:1021F000542011461A4602F0B9FB04E03B6B55200F
:10220000194602F067FB00BF0023BCE07B6B002B8C
:1022100006D107F11403184601F0A2FA01237B63EB
:10222000FFF760FD00F0EAFFFFF72EFD3B6B93F830
:102230004430DBB25BB2B3F1FF3F03D13B6B002212
:1022400083F844203B6B93F84530DBB25BB2B3F1CB
:10225000FF3F03D13B6B002283F84520FFF742FD8F
:1022600007F114023B1D1046194601F09BFA034684
:10227000002B52D1386B00F05BFD0346002B46D09B
:102280003B6B93F84C30042B28D801A252F823F072
:10229000A5220000D1220000BF220000BF220000C2
:1022A000D12200003B68002B01D1562300E0C2235D
:1022B000396B3A6B926B184602F058FB0DE03A6BA3
:1022C0003B6B9B6B572011461A4602F04FFB04E014
:1022D0003B6B5820194602F0FDFA00BF3B6B03F13F
:1022E00010027B681046194601F07EF9386B00F049
:1022F000B9FC00F091FF0346002B43D1244B4FF073
:1023000080521A60BFF34F8FBFF36F8F3AE0386B84
:1023100000F0A8FC00F080FFDDE6386B00F0A2FCC6
:1023200000F07AFF3B6B93F84C30042B28D801A2C5
:1023300052F823F0492300007523000063230000B6
:1023400063230000752300003B68002B01D1532359
:1023500000E0C123396B3A6B926B184602F006FB22
:102360000DE03A6B3B6B9B6B542011461A4602F012
:10237000FDFA04E03B6B5520194602F0ABFA00BFB2
:10238000002300E0A7E618463837BD4680BD00BFF1
:1023900004ED00E080B58EB000AFF860B9607A60FF
:1023A0003B60FB683B633B6B002B09D14FF0200384
:1023B00083F31188BFF36F8FBFF34F8F7B62FEE70C
:1023C000BB68002B03D13B6B1B6C002B01D101239D
:1023D00000E00023002B09D14FF0200383F3118884
:1023E000BFF36F8FBFF34F8F3B62FEE73B68022B5B
:1023F00003D13B6BDB6B012B01D1012300E00023F8
:10240000002B09D14FF0200383F31188BFF36F8FA6
:10241000BFF34F8FFB61FEE7FFF7ECFCEFF3118298
:102420004FF0200383F31188BFF36F8FBFF34F8FFB
:10243000BA617B61BB69FB623B6B9A6B3B6BDB6B8D
:102440009A4202D33B68022B4FD13B6B93F8453045
:1024500087F82B303B6B93F84C30002B05D0002BCA
:102460001BDB023B012B18D80DE03B68002B01D190
:10247000592300E0C323396B3A6B926B0132184643
:1024800002F074FA08E03A6B3B6B9B6B01335A2005
:1024900011461A4602F06AFA00BF386BB9683A680A
:1024A00000F04EFB97F92B30B3F1FF3F12D13B6B9D
:1024B0005B6A002B16D03B6B2433184601F0EAF818
:1024C0000346002B0ED07B68002B0BD07B680122CB
:1024D0001A6007E097F82B300133DBB2DAB23B6BBE
:1024E00083F8452001237B6322E03B6B93F84C305B
:1024F000002B05D0002B19DB023B012B16D80CE07A
:102500003B68002B01D15C2300E0C423396B3A6B9C
:10251000926B184602F02AFA07E03A6B3B6B9B6B12
:102520005D2011461A4602F021FA00BF00237B63AA
:10253000FB6A3B613B6983F311887B6B1846383734
:10254000BD4680BD80B582B000AF786039607868E4
:102550003968002200F006F8034618460837BD46E1
:1025600080BD00BF80B590B000AFF860B9607A6000
:10257000FB68BB63BB6B002B09D14FF0200383F3D7
:102580001188BFF36F8FBFF34F8FBB62FEE7BB6B4A
:102590001B6C002B09D04FF0200383F31188BFF38D
:1025A0006F8FBFF34F8F7B62FEE7BB6B1B68002B07
:1025B00003D1BB6B5B68002B01D1012300E000233A
:1025C000002B09D14FF0200383F31188BFF36F8FE5
:1025D000BFF34F8F3B62FEE7FFF70CFCEFF3118276
:1025E0004FF0200383F31188BFF36F8FBFF34F8F3A
:1025F000FA61BB61FB697B63BB6B9B6B3B63BB6B32
:10260000DA6B3B6B9A424ED9BB6B93F8453087F837
:102610002F30BB6B93F84C30002B05D0002B1BDB0D
:10262000023B012B18D80DE07B68002B01D1592308
:1026300000E0C323B96BBA6B926B0132184602F00B
:1026400095F908E0BA6BBB6B9B6B01335A201146BE
:102650001A4602F08BF900BF3B6B5A1CBB6B9A63A6
:1026600097F92F30B3F1FF3F12D1BB6B5B6A002BA0
:1026700016D0BB6B2433184601F00CF80346002B30
:102680000ED0BB68002B0BD0BB6801221A6007E09C
:1026900097F82F300133DBB2DAB2BB6B83F84520F9
:1026A0000123FB6322E0BB6B93F84C30002B05D079
:1026B000002B19DB023B012B16D80CE07B68002BAA
:1026C00001D15C2300E0C423B96BBA6B926B18464E
:1026D00002F04CF907E0BA6BBB6B9B6B5D201146B7
:1026E0001A4602F043F900BF0023FB637B6B7B615A
:1026F0007B6983F31188FB6B18464037BD4680BD6C
:1027000090B58FB000AFF860B9607A603B6000238D
:102710007B63FB683B633B6B002B09D14FF02003CD
:1027200083F31188BFF36F8FBFF34F8F7B62FEE798
:10273000BB68002B03D13B6B1B6C002B01D1012329
:1027400000E00023002B09D14FF0200383F3118810
:10275000BFF36F8FBFF34F8F3B62FEE701F060F96D
:102760000346002B02D17B68002B01D1012300E03E
:102770000023002B09D14FF0200383F31188BFF30E
:102780006F8FBFF34F8FFB61FEE7FFF77DFA3B6B67
:102790009B6BFB62FB6A002B00F09B803B6BDB6852
:1027A000BB62386BB96800F037FA3B68002B4DD13B
:1027B0003B6B93F84C30042B26D801A252F823F03F
:1027C000D5270000F9270000E7270000E7270000D1
:1027D000F9270000396B7A683B6B9B6B013B6020EB
:1027E00002F014F90FE0396B7A683B6B9B6B013B8D
:1027F000612002F00BF906E03A6B7B68622011461B
:102800001A4602F0B3F800BFFB6A5A1E3B6B9A638C
:102810003B6B1B68002B04D101F034FA02463B6B82
:102820005A603B6B1B69002B4FD03B6B1033184633
:1028300000F030FF0346002B47D0AF4B4FF08052E3
:102840001A60BFF34F8FBFF36F8F3EE03B6B93F87F
:102850004C30042B22D801A252F823F0712800003A
:1028600091280000812800008128000091280000A4
:10287000396B7A683B6B9B6B702002F0C7F80CE0F9
:10288000396B7A683B6B9B6B712002F0BFF804E0F8
:102890003B6B7220194602F01DF800BF3B6BBA6A11
:1028A000DA603B6B5B6A002B0FD03B6B243318461E
:1028B00000F0F0FE0346002B07D08F4B4FF0805204
:1028C0001A60BFF34F8FBFF36F8FFFF70BFA01232F
:1028D00032E17B68002B3FD1FFF704FA3B6B93F8A2
:1028E0004C30042B36D801A252F823F00129000005
:1028F0003D2900001F2900001F2900003D2900007C
:102900003B68002B01D1632300E07323396B7A68A5
:10291000386B846B1846234602F078F819E03B6860
:10292000002B01D1642300E07423396B7A68386B83
:10293000846B1846234602F069F80AE03B68002BD6
:1029400001D1652300E07523396B7A68184602F0DF
:102950000DF800BF0023EFE07B6B002B06D107F1E1
:102960001403184600F0FCFE01237B63FFF7BAF95D
:1029700000F044FCFFF788F93B6B93F84430DBB27E
:102980005BB2B3F1FF3F03D13B6B002283F84420DD
:102990003B6B93F84530DBB25BB2B3F1FF3F03D141
:1029A0003B6B002283F84520FFF79CF907F11402E6
:1029B0003B1D1046194600F0F5FE0346002B6DD175
:1029C000386B00F09FF90346002B61D03B6B93F806
:1029D0004C30042B36D801A252F823F0F129000024
:1029E0002D2A00000F2A00000F2A00002D2A0000C7
:1029F0003B68002B01D1662300E07623396B7A68AF
:102A0000386B846B1846234602F000F819E03B68E7
:102A1000002B01D1672300E07723396B7A68386B8C
:102A2000846B1846234601F0F1FF0AE03B68002B57
:102A300001D1682300E07823396B7A68184601F0E9
:102A400095FF00BF3B6B1B68002B08D1FFF71CF9FB
:102A50003B6B5B68184601F001F8FFF743F93B6BED
:102A600003F124027B681046194600F0BDFD386B67
:102A700000F0F8F800F0D0FB0346002B5BD11E4BB2
:102A80004FF080521A60BFF34F8FBFF36F8F52E049
:102A9000386B00F0E7F800F0BFFB76E6386B00F02B
:102AA000E1F800F0B9FB386B00F02CF90346002B7D
:102AB00041D03B6B93F84C30042B3AD801A252F82A
:102AC00023F000BFD92A00001B2B0000FD2A0000C4
:102AD000FD2A00001B2B00003B68002B01D1632363
:102AE00000E07323396B7A68386B846B1846234691
:102AF00001F08CFF1CE000BF04ED00E03B68002B00
:102B000001D1642300E07423396B7A68386B846BDD
:102B10001846234601F07AFF0AE03B68002B01D1FA
:102B2000652300E07523396B7A68184601F01EFFB3
:102B300000BF002300E028E618463C37BD4690BDA4
:102B400080B586B000AFF860B9607A6000237B6121
:102B5000FB689B6B3B61FB681B6C002B0DD1FB681A
:102B60001B68002B4FD1FB685B68184600F0FAFF2A
:102B70007861FB6800225A6045E07B68002B1AD11F
:102B8000FB689A68FB681B6C1046B9681A4603F02C
:102B900075FEFB689A68FB681B6C1A44FB689A60B8
:102BA000FB689A68FB685B689A422CD3FB681A68DA
:102BB000FB689A6027E0FB68DA68FB681B6C1046CC
:102BC000B9681A4603F05AFEFB68DA68FB681B6CAA
:102BD0005B421A44FB68DA60FB68DA68FB681B68D2
:102BE0009A4207D2FB685A68FB681B6C5B421A4426
:102BF000FB68DA607B68022B05D13B69002B02D0B1
:102C00003B69013B3B613B695A1CFB689A637B69EA
:102C100018461837BD4680BD80B582B000AF7860D9
:102C200039607B681B6C002B19D07B68DA687B6885
:102C30001B6C1A447B68DA607B68DA687B685B68C7
:102C40009A4203D37B681A687B68DA607B68DA682B
:102C50007B681B6C386811461A4603F00FFE083774
:102C6000BD4680BD80B584B000AF7860FFF70CF83A
:102C70007B6893F84530FB7312E07B685B6A002B3E
:102C80000AD07B682433184600F004FD0346002B6D
:102C900003D000F0E5FD00E006E0FB7B013BFB73A9
:102CA00097F90F30002BE8DC7B68FF2283F8452082
:102CB000FFF718F8FEF7E8FF7B6893F84430BB7322
:102CC00012E07B681B69002B0DD07B68103318461F
:102CD00000F0E0FC0346002B01D000F0C1FDBB7BFF
:102CE000013BBB7300E003E097F90E30002BE8DCFA
:102CF0007B68FF2283F84420FEF7F4FF1037BD46BF
:102D000080BD00BF80B584B000AF7860FEF7BCFF27
:102D10007B689B6B002B02D10123FB6001E0002349
:102D2000FB60FEF7DFFFFB6818461037BD4680BD2D
:102D300080B584B000AF7860FEF7A6FF7B689A6B21
:102D40007B68DB6B9A4202D10123FB6001E0002328
:102D5000FB60FEF7C7FFFB6818461037BD4680BD15
:102D600080B584B000AF786039600023FB601EE05E
:102D7000124BFA6853F83230002B15D10F4BFA681A
:102D8000396843F832100D4AFB68DB0013447A6857
:102D90005A607868396802F013F8012003213A6814
:102DA0007B6801F0F5FE05E0FB680133FB60FB6822
:102DB000072BDDD91037BD4680BD00BF3032FF1F65
:102DC00080B586B000AFF860B9607A60FB687B615F
:102DD000FEF75AFF7B6993F84430DBB25BB2B3F184
:102DE000FF3F03D17B69002283F844207B6993F87D
:102DF0004530DBB25BB2B3F1FF3F03D17B69002208
:102E000083F84520FEF76EFF7B699B6B002B06D194
:102E10007B6924331846B9687A6800F007FC786942
:102E2000FFF720FF1837BD4680BD00BF80B58CB0CE
:102E300004AFF860B9603B601346FB80FB889B00E1
:102E40001846FEF781FB78617B69002B0ED0742059
:102E5000FEF77AFBF861FB69002B03D0FB697A6906
:102E60001A6305E07869FEF737FC01E00023FB6197
:102E7000FB69002B14D0FB88BA6A0092FA6A0192AF
:102E8000FA69029200220392F868B9681A463B6810
:102E900000F00EF8F86900F09FF80123BB6102E032
:102EA0004FF0FF33BB61BB6918462037BD4680BD7C
:102EB00080B588B000AFF860B9607A603B603B6B6A
:102EC0001A6B7B689B001046A5211A4603F0DFFCB5
:102ED0003B6B1A6B7B6803F18043013B9B001344FF
:102EE000BB61BB6923F00703BB61BB6903F0070348
:102EF000002B09D04FF0200383F31188BFF36F8FAD
:102F0000BFF34F8F7B61FEE70023FB6112E0BA68DD
:102F1000FB6913441A78396BFB690B4430331A711F
:102F2000BA68FB6913441B78002B00D105E0FB69EC
:102F30000133FB61FB69132BE9D93B6B002283F85A
:102F40004720BB6A042B01D90423BB623B6BBA6ADE
:102F5000DA623B6BBA6A1A653B6B00225A653B6BBF
:102F600004331846FEF7F2FC3B6B18331846FEF7A5
:102F7000EDFC3B6B3A6B1A61BB6AC3F105023B6B1C
:102F80009A613B6B3A6B5A620023FB6108E03B6B32
:102F9000FA691632002143F82210FB690133FB6104
:102FA000FB69042BF3D93B6B0022DA663B6B0022F2
:102FB00083F87020B869F9683A68FEF759FD02464F
:102FC0003B6B1A60FB6A002B02D0FB6A3A6B1A60FB
:102FD0002037BD4680BD00BF80B582B000AF7860AD
:102FE000FEF752FE3E4B1B685A1C3D4B1A603D4B90
:102FF0001B68002B09D13B4B7A681A60384B1B6861
:10300000012B10D100F050FC0DE0374B1B68002B5A
:1030100009D1344B1B68DA6A7B68DB6A9A4202D8B2
:10302000304B7A681A60314B1B685A1C2F4B1A6060
:103030002E4B1A687B689A647B68002B1BD07B68D8
:1030400034337868194601F0BBFE7B68DB6A786828
:10305000194601F041FF7B683433012003211A46F1
:103060007B6801F095FD7A687B68DB6A1020114669
:103070001A4601F07BFC7B683020194601F02AFCDF
:103080007B68DB6A01229A40194B1B681A43184B74
:103090001A607B68DA6A13469B0013449B00154A4A
:1030A0001A447B68043310461946FEF75BFCFEF7B2
:1030B00019FE0D4B1B68002B0ED00A4B1B68DA6AF9
:1030C0007B68DB6A9A4207D20B4B4FF080521A6042
:1030D000BFF34F8FBFF36F8F0837BD4680BD00BF72
:1030E000FC29FF1F2429FF1F082AFF1F182AFF1F82
:1030F000042AFF1F2829FF1F04ED00E080B584B0DB
:1031000000AF78600023FB607B68002B1AD0144B63
:103110001B68002B09D04FF0200383F31188BFF305
:103120006F8FBFF34F8FBB60FEE700F067F87A2028
:10313000796801F0CFFB7868002100F0B7FD00F05E
:103140006BF8F860FB68002B07D1064B4FF08052FC
:103150001A60BFF34F8FBFF36F8F1037BD4680BD2E
:10316000242AFF1F04ED00E080B586B002AF0023E3
:1031700000931C4B01931C481C495A220023FFF763
:1031800055FEF860FB68012B02D100F0F3FDF860FA
:10319000FB68012B15D14FF0200383F31188BFF397
:1031A0006F8FBFF34F8FBB60114B4FF0FF321A6030
:1031B000104B01221A60104B00221A60FEF7D8FC57
:1031C0000DE0FB68B3F1FF3F09D14FF0200383F31B
:1031D0001188BFF36F8FBFF34F8F7B60FEE710370F
:1031E000BD4680BD202AFF1F7938000040690000DD
:1031F0001C2AFF1F082AFF1F002AFF1F80B400AFF0
:10320000044B1B685A1C034B1A60BD465DF8047BD7
:10321000704700BF242AFF1F80B584B000AF002391
:10322000FB600023BB60434B1B68002B09D14FF0B0
:10323000200383F31188BFF36F8FBFF34F8F3B6081
:10324000FEE7FEF721FD3B4B1B685A1E394B1A6007
:10325000384B1B68002B66D1374B1B68002B62D0A4
:1032600033E0364BDB68DB68FB60FB6818331846DD
:10327000FEF7D4FBFB6804331846FEF7CFFBFB6870
:103280003020194601F026FBFB68DB6A01229A40D8
:103290002B4B1B681A432A4B1A60FB68DA6A1346E9
:1032A0009B0013449B00274A1A44FB6804331046D2
:1032B0001946FEF757FBFB68DA6A234B1B68DB6A8B
:1032C0009A4202D3214B01221A601C4B1B68002B2F
:1032D000C7D1FB68002B01D000F06EFB1C4B1B68B4
:1032E0007B607B68002B10D000F046F80346002B73
:1032F00002D0164B01221A607B68013B7B607B6821
:10330000002BF1D1124B00221A60104B1B68002BCE
:1033100009D00123BB600F4B4FF080521A60BFF3FE
:103320004F8FBFF36F8FFEF7DDFCBB681846103779
:10333000BD4680BD242AFF1FFC29FF1FBC29FF1F9B
:10334000042AFF1F2829FF1F2429FF1F102AFF1FFF
:103350000C2AFF1F04ED00E080B483B000AF054BE2
:103360001B687B607B6818460C37BD465DF8047BA4
:10337000704700BF002AFF1F80B586B000AF002352
:103380007B61584B1B68012B03D0574B1B68002BEC
:1033900004D1564B1B685A1C544B1A60514B1B6886
:1033A000002B06D1524B1B6801333120194601F026
:1033B00091FA4C4B1B68002B40F083804C4B1B68F0
:1033C00001333B614A4B3A691A603B69002B1FD1BC
:1033D000484B1B681B68002B09D04FF0200383F378
:1033E0001188BFF36F8FBFF34F8F3B60FEE7414BF8
:1033F0001B68FB60404B1A683E4B1A603E4BFA68F4
:103400001A603E4B1B685A1C3C4B1A6000F0D4FA01
:103410003B4B1B683A699A4252D3364B1B681B6878
:10342000002B01D1012300E00023002B04D0344BFA
:103430004FF0FF321A6043E02E4B1B68DB68DB68FD
:10344000BB60BB685B687B603A697B689A4203D269
:103450002B4B7A681A6033E0BB6804331846FEF7DA
:10346000DDFABB689B6A002B04D0BB681833184692
:10347000FEF7D4FABB683020194601F02BFABB687E
:10348000DB6A01229A401F4B1B681A431D4B1A60CE
:10349000BB68DA6A13469B0013449B001A4A1A441D
:1034A000BB68043310461946FEF75CFABB68DA6A5B
:1034B000164B1B68DB6A9A4201D301237B61ACE7A0
:1034C00004E0094B1B685A1C074B1A60104B1B6821
:1034D000002B01D001237B617B6918461837BD465C
:1034E00080BD00BF242AFF1F0C2AFF1FC030FF1F12
:1034F000002AFF1FB429FF1FB829FF1F142AFF1F2E
:103500001C2AFF1F042AFF1F2829FF1F2429FF1F31
:10351000102AFF1F80B586B000AF2E4B1B68002B12
:1035200003D02D4B01221A6051E02B4B00221A6070
:103530002A4B1B68FB60FB68B3FA83F3FB72FB7AD0
:10354000C3F11F037B6126497A6913469B0013442C
:103550009B000B441B68002B09D14FF0200383F321
:103560001188BFF36F8FBFF34F8F7B60FEE77A69DF
:1035700013469B0013449B00194A13443B613B696B
:103580005B685A683B695A603B695A683B69083313
:103590009A4204D13B695B685A683B695A603B694F
:1035A0005B68DA680F4B1A600E4B1B68184600F018
:1035B00073FF0346002B0AD00A4B1B681A46094BBF
:1035C0001B68DB6A372011461A4601F0CFF918371D
:1035D000BD4680BD242AFF1F102AFF1F042AFF1F9B
:1035E0002829FF1F2429FF1F80B584B000AF786011
:1035F00039607B68002B09D14FF0200383F31188D9
:10360000BFF36F8FBFF34F8FFB60FEE7064B1B6866
:10361000183378681946FEF7C9F93868012100F0B7
:1036200045FB1037BD4680BD2429FF1F80B586B0FD
:1036300000AFF860B9607A60FB68002B09D14FF0E9
:10364000200383F31188BFF36F8FBFF34F8F7B612C
:10365000FEE70E4B1B681833F8681946FEF782F92F
:103660007B68002B02D04FF0FF33BB60084B1A6819
:10367000BB6813447920194601F02CF9B8687968C1
:1036800000F014FB1837BD4680BD00BF2429FF1F82
:10369000002AFF1F80B586B000AF78607B68DB68CA
:1036A000DB683B613B69002B09D14FF0200383F3BA
:1036B0001188BFF36F8FBFF34F8FFB60FEE73B694D
:1036C00018331846FEF7AAF91F4B1B68002B21D1AF
:1036D0003B6904331846FEF7A1F93B6930201946CF
:1036E00001F0F8F83B69DB6A01229A40174B1B682E
:1036F0001A43164B1A603B69DA6A13469B0013445F
:103700009B00134A1A443B69043310461946FEF7DE
:1037100029F905E03B6918330E481946FEF722F9EE
:103720003B69DA6A0C4B1B68DB6A9A4205D90123B4
:103730007B610A4B01221A6001E000237B617B69F7
:1037400018461837BD4680BD242AFF1F042AFF1FD4
:103750002829FF1FBC29FF1F2429FF1F102AFF1F34
:1037600080B485B000AF78607B68002B09D14FF042
:10377000200383F31188BFF36F8FBFF34F8FFB607C
:10378000FEE7064B1A687B681A60054B1A687B686F
:103790005A601437BD465DF8047B7047142AFF1F3A
:1037A000002AFF1F80B586B000AF786039607B6863
:1037B000002B09D14FF0200383F31188BFF36F8FE3
:1037C000BFF34F8FFB60FEE73B68002B09D14FF042
:1037D000200383F31188BFF36F8FBFF34F8FBB605C
:1037E000FEE7FEF751FA1C4B1B683B613B681B6808
:1037F000B3F1FF3F02D100237B6126E07B681A68AA
:10380000164B1B689A4207D07B685A683B699A42FC
:1038100002D801237B6118E07B685B683A69D21AA1
:103820003B681B689A420ED23B681A687B685968ED
:103830003B69CB1A1A443B681A607868FFF790FF1F
:1038400000237B6101E001237B61FEF74BFA7B697A
:1038500018461837BD4680BD002AFF1F142AFF1FD7
:1038600080B400AF034B01221A60BD465DF8047BB3
:10387000704700BF102AFF1F80B582B000AF78608C
:1038800000F050F8064B1B68012B07D9054B4FF091
:1038900080521A60BFF34F8FBFF36F8FF0E700BF06
:1038A0002829FF1F04ED00E080B582B000AF00239F
:1038B0007B600CE07A6813469B0013449B00114A1E
:1038C00013441846FEF722F87B6801337B607B685F
:1038D000042BEFD90C48FEF719F80C48FEF716F840
:1038E0000B48FEF713F80B48FEF710F80A48FEF7EE
:1038F0000DF80A4B044A1A60094B044A1A6008374B
:10390000BD4680BD2829FF1F8C29FF1FA029FF1F4E
:10391000BC29FF1FD029FF1FE829FF1FB429FF1F63
:10392000B829FF1F80B582B000AF28E0FFF766FC22
:10393000164B1B68002B14BF00230123DBB27B60F6
:10394000FFF76AFC7B68002B19D1FEF79DF90F4B3E
:10395000DB68DB683B603B6804331846FEF75EF8C3
:103960000B4B1B685A1E0A4B1A600A4B1B685A1EE7
:10397000084B1A60FEF7B6F9386800F00DF8054BF1
:103980001B68002BD2D10837BD4680BDD029FF1F50
:10399000FC29FF1FE429FF1F80B582B000AF7860CB
:1039A0007B681B6B1846FDF797FE7868FDF794FE61
:1039B0000837BD4680BD00BF80B483B000AF0E4B5A
:1039C0001B681B68002B01D1012300E00023002BA2
:1039D00004D00A4B4FF0FF321A6008E0064B1B6818
:1039E000DB68DB687B607B685A68044B1A600C37C5
:1039F000BD465DF8047B7047B429FF1F1C2AFF1FDA
:103A000080B483B000AF054B1B687B607B681846B1
:103A10000C37BD465DF8047B704700BF2429FF1FAB
:103A200080B483B000AF0B4B1B68002B02D1012385
:103A30007B6008E0084B1B68002B02D102237B60EF
:103A400001E000237B607B6818460C37BD465DF8BB
:103A5000047B7047082AFF1F242AFF1F80B584B00B
:103A600000AF78607B68FB607B68002B70D0FB68E0
:103A7000DA6A394B1B68DB6A9A4269D2FB689B6938
:103A8000002B06DB344B1B68DB6AC3F10502FB68C5
:103A90009A61FB685969FB68DA6A13469B00134414
:103AA0009B002E4A1344994201D1012300E00023D8
:103AB000002B3FD0FB6804331846FDF7AFFF0346E9
:103AC000002B15D1FB68DA6A244913469B00134486
:103AD0009B000B441B68002B0AD1FB68DB6A0122A8
:103AE00002FA03F3DA431E4B1B681A401C4B1A60A0
:103AF000194B1B68DA6AFB68DA62FB6830201946EA
:103B000000F0E8FEFB68DB6A01229A40144B1B6858
:103B10001A43134B1A60FB68DA6A13469B0013447E
:103B20009B000E4A1A44FB68043310461946FDF701
:103B300019FF04E0084B1B68DA6AFB68DA62FA686E
:103B4000054B1B68DB6A052011461A4600F00EFF84
:103B50001037BD4680BD00BF2429FF1F2829FF1F45
:103B6000042AFF1F80B586B000AF78607B683B6198
:103B700000237B617B68002B79D03F4B1B683A693F
:103B80009A4209D04FF0200383F31188BFF36F8F5F
:103B9000BFF34F8FFB60FEE73B695B6D002B09D1E4
:103BA0004FF0200383F31188BFF36F8FBFF34F8F64
:103BB000BB60FEE73B695B6D5A1E3B695A653B691A
:103BC000DA6A3B691B6D9A4251D03B695B6D002BF1
:103BD0004DD13B6904331846FDF720FF0346002B07
:103BE00015D13B69DA6A254913469B0013449B00B3
:103BF0000B441B68002B0AD13B69DB6A012202FAE5
:103C000003F3DA431E4B1B681A401D4B1A603A69D6
:103C10003B691B6D062011461A4600F0A7FE3B6962
:103C20001A6D3B69DA623B69DB6AC3F105023B69E5
:103C30009A613B693020194600F04CFE3B69DB6A13
:103C400001229A400E4B1B681A430D4B1A603B69C8
:103C5000DA6A13469B0013449B00084A1A443B69E6
:103C6000043310461946FDF77DFE01237B617B6915
:103C700018461837BD4680BD2429FF1F2829FF1F7D
:103C8000042AFF1F80B400AF074B1B68002B04D031
:103C9000054B1B685A6D01325A65034B1B68184669
:103CA000BD465DF8047B70472429FF1F80B584B0B2
:103CB00000AF78603960284B1B68FB60274B1B689E
:103CC00004331846FDF7AAFE0346002B0BD1234B05
:103CD0001B68DB6A012202FA03F3DA43204B1B68FC
:103CE0001A401F4B1A607B68B3F1FF3F0AD13B6853
:103CF000002B07D0194B1B6804331A481946FDF7EF
:103D000031FE26E0FA687B681344BB60134B1B68E6
:103D1000BA685A60BA68FB689A4209D2124B1A68AC
:103D20000E4B1B68043310461946FDF73FFE10E0AA
:103D30000E4B1A68094B1B68043310461946FDF7F1
:103D400035FE0B4B1B68BA689A4202D2084BBA6820
:103D50001A601037BD4680BD002AFF1F2429FF1FAF
:103D6000042AFF1FE829FF1FB829FF1FB429FF1FDE
:103D70001C2AFF1F80B584B002AF00237B6000F0D7
:103D800041FB104B1B68002B0AD0022300930E4B03
:103D900001930E480E49B4220023FFF747F87860DC
:103DA0007B68002B09D14FF0200383F31188BFF308
:103DB0006F8FBFF34F8F3B60FEE77B681846083775
:103DC000BD4680BD582AFF1F5C2AFF1F154000001A
:103DD0004869000080B58AB000AFF860B9607A60C9
:103DE0003B6000237B62FB68002B09D14FF020036E
:103DF00083F31188BFF36F8FBFF34F8F3B62FEE7F2
:103E0000634B1B68002B00F0BD80BB683B617B6887
:103E10007B61FB68BB61BB68052B1CDCFFF700FE08
:103E20000346022B0BD15A4B1A6807F110031046B8
:103E300019463A6B0023FEF7F3F8786216E0544B0C
:103E40001A6807F110031046194600220023FEF7F6
:103E5000E7F878620AE04E4B1A6807F11003104643
:103E600019463A680023FEF795FA7862BB68013B71
:103E7000082B00F2878001A252F823F0A13E000037
:103E8000033F0000B93E0000D13E0000EB3E0000C1
:103E90001D3F0000373F0000513F00006B3F000016
:103EA0007B6A012B01D1A02300E0A823FA68184601
:103EB000114600F00FFD64E07B6A012B01D1A223C3
:103EC00000E0AA23FA681846114600F003FD58E006
:103ED0007B6A012B01D1A32300E0AB23FA681846CB
:103EE00011467A6800F042FD4BE07B6A012B01D15C
:103EF000242300E04823FA681846114600F0EAFC43
:103F00003FE07B6A012B01D1A12300E0A923FA68DD
:103F1000184611467A6800F029FD32E07B6A012BD1
:103F200001D1A42300E0AC23FA68184611467A6850
:103F300000F01CFD25E07B6A012B01D1A52300E0E8
:103F4000AD23FA68184611467A6800F00FFD18E0B4
:103F50007B6A012B01D1A62300E0AE23FA68184644
:103F600011467A6800F002FD0BE07B6A012B01D15B
:103F7000A72300E0AF23FA68184611467A6800F0DC
:103F8000F5FC00BF7B6A18462837BD4680BD00BFE0
:103F9000582AFF1F80B588B002AF786039601C4B8B
:103FA0001B68DB68DB687B617B6904331846FDF7BF
:103FB00035FD7B69DB69012B22D17B699A697B68BE
:103FC0001344786919463A687B6800F0C7F80346DD
:103FD000002B15D000230093786900217A68002314
:103FE000FFF7F8FE38613B69002B09D14FF0200341
:103FF00083F31188BFF36F8FBFF34F8FFB60FEE732
:104000007B695B6A786998471837BD4680BD00BFF9
:10401000502AFF1F80B584B000AF786007F1080315
:10402000184600F057F8F860BB68F868194600F0C9
:1040300003F800F0D5F8F1E780B584B000AF786000
:104040003960FFF7DBF807F10803184600F066F85F
:10405000F860BB68002B31D13B68002B0AD17A682D
:10406000FB689A4206D8FFF7D7F87868F968FFF737
:1040700091FF25E03B68002B08D0134B1B681B68A1
:10408000002B14BF00230123DBB23B600F4B1A68E7
:104090007968FB68CB1A104619463A68FEF790FE1D
:1040A000FFF7BAF80346002B0AD1094B4FF08052B4
:1040B0001A60BFF34F8FBFF36F8F01E0FFF7ACF8CB
:1040C0001037BD4680BD00BF542AFF1F582AFF1F6E
:1040D00004ED00E080B485B000AF78600E4B1B6843
:1040E0001B68002B14BF00230123DBB21A467B6838
:1040F0001A607B681B68002B05D1074B1B68DB68C7
:104100001B68FB6001E00023FB60FB681846143766
:10411000BD465DF8047B7047502AFF1F80B584B010
:1041200000AF7860FFF718F9F8600B4B1B68FA686E
:104130009A4205D200F006F97B6801221A6002E07B
:104140007B6800221A60044BFA681A60FB68184604
:104150001037BD4680BD00BF602AFF1F80B586B006
:1041600000AFF860B9607A603B6000237B61FB6858
:10417000BA685A60FB68FA681A61BA687B689A4242
:1041800012D87A683B68D21AFB689B699A4202D3BC
:1041900001237B611BE0104B1A68FB680433104657
:1041A0001946FDF703FC12E07A683B689A4206D292
:1041B000BA683B689A4202D301237B6107E0074B50
:1041C0001A68FB68043310461946FDF7EFFB7B695C
:1041D00018461837BD4680BD542AFF1F502AFF1FBE
:1041E00080B58EB002AF9AE07B68002B18DA3B1DD9
:1041F0000433FB62FB6A002B09D14FF0200383F3E9
:104200001188BFF36F8FBFF34F8FFB61FEE7FB6A2F
:104210001B68FA6A5168FA6A92680846114698471C
:104220007B68002B7BDBFB68BB62BB6A5B69002B96
:1042300004D0BB6A04331846FDF7F0FB3B46184632
:10424000FFF76CFF78627B68092B67D801A252F8F0
:1042500023F000BF7D4200007D4200007D4200004F
:104260001D430000DD420000154300007D420000B8
:104270007D4200001D430000DD420000BA68BB6AB9
:104280009B691A44BB68B86A11467A6AFFF766FFF1
:104290000346002B21D0BB6A5B6AB86A9847BB6AA9
:1042A000DB69012B19D1BA68BB6A9B6913440022F0
:1042B0000092B86A00211A460023FFF78BFD38628E
:1042C0003B6A002B09D14FF0200383F31188BFF321
:1042D0006F8FBFF34F8FBB61FEE720E0BA68BB6A08
:1042E0009A61BB6A9B69002B09D14FF0200383F3CD
:1042F0001188BFF36F8FBFF34F8F7B61FEE7BB6AFF
:104300009A697B6A1344B86A19467A6A7B6AFFF72E
:1043100025FF04E0B86AFDF7DFF900E000BF084BB5
:104320001A683B1D1046194600220023FEF7E8F9E3
:104330000346002B7FF458AF3037BD4680BD00BF29
:10434000582AFF1F80B588B002AF44E02B4B1B6892
:10435000DB681B687B61294B1B68DB68DB683B61A2
:104360003B6904331846FDF759FB3B695B6A3869C2
:1043700098473B69DB69012B2DD13B699A697B69C1
:104380001344FB60FA687B699A420ED93B69FA686C
:104390005A603B693A691A61184B1A683B690433E1
:1043A00010461946FDF702FB15E00023009338691B
:1043B00000217A690023FFF70DFDB860BB68002B70
:1043C00009D14FF0200383F31188BFF36F8FBFF340
:1043D0004F8F3B60FEE7094B1B681B68002BB5D174
:1043E000064B1B687B60064B1A68044B1A60044B33
:1043F0007A681A601837BD4680BD00BF502AFF1F7B
:10440000542AFF1F80B500AFFDF73EFC124B1B681E
:10441000002B1DD11148FDF779FA1148FDF776FA06
:10442000104B0E4A1A60104B0D4A1A600A201021D8
:104430000022FDF783FD0246074B1A60064B1B68FE
:10444000002B05D0044B1B6818460849FEF788FC72
:10445000FDF748FC80BD00BF582AFF1F282AFF1F18
:104460003C2AFF1F502AFF1F542AFF1F50690000DB
:1044700080B400AFBD465DF8047B704780B400AFE8
:10448000BD465DF8047B704780B500AFFFF7B8FA12
:104490000346184680BD00BF80B483B000AF78608B
:1044A000084B1A687B689A4204D0064B7A681A60F7
:1044B000012300E0002318460C37BD465DF8047B5D
:1044C000704700BF642AFF1F0EB480B589B002AFE9
:1044D000786000237B6100233B6100237B6117E050
:1044E0007B697A6A13441B785BB2252B0DD17B69FB
:1044F00001337A6A13441B785BB2252B02D03B69E7
:1045000001333B617B6901337B617B6901337B61F3
:104510007B697A6A13441B78002B02D07B69332BAA
:10452000DEDD07F12803FB607B68002B0DD03B69C3
:104530009BB291339BB207F10C0200923869194685
:104540007A687B6A00F03EFB0CE03B699BB29033DB
:104550009BB207F10C020092386919467A687B6AAF
:1045600000F030FB1C37BD46BDE8804003B070470B
:1045700090B589B000AF7860FFF786FFF861EFF380
:1045800010837B617B69BB6101233B613B6983F3E2
:1045900010881A4B7A681A60FB69002B01D102233C
:1045A000FB61164B1B68002B1DD0FFF761FF144BFE
:1045B00000221A60134BFF221A7000F0BBF800F0C3
:1045C00027F800F06FF8104B1968FA690F4B1B6859
:1045D0005C1C0E480460012000F018FA00F006FD93
:1045E00000F0F0F801E0FFF749FFBB69FB60FB68F2
:1045F00083F310882437BD4690BD00BFB830FF1F3D
:10460000BC30FF1F0400FF1FC030FF1FB430FF1F6E
:1046100080B590B000AF0023FB630023BB63EFF3D2
:104620001083FB62FB6A7B630123BB62BB6A83F37B
:1046300010881A4B1B68002B27D00023FB6320E057
:104640003B1D3B633B6B002B18D00023BB630DE08D
:10465000BB6B9B003A6B1344F96BBA6B1144104A65
:1046600052F821201A60BB6B0133BB63BB6B072B75
:10467000EED90120396B2022FCF722FFFB6B0833B7
:10468000FB63FB6BB3F5A07FDAD37B6B7B627B6A4A
:1046900083F310884037BD4680BD00BFB830FF1F90
:1046A000682AFF1F80B58AB000AF00237B62002319
:1046B0003B62EFF310837B617B69FB6101233B610C
:1046C0003B6983F31088194B1B68002B26D000230D
:1046D0007B6220E03B1DBB61BB69002B18D000232F
:1046E0003B620DE03B6A9B00BA691344796A3A6AFF
:1046F00011440F4A52F821201A603B6A01333B6291
:104700003B6A012BEED90120B9690822FCF7D8FEDB
:104710007B6A02337B627B6A4F2BDBD9FB69FB60D0
:10472000FB6883F310882837BD4680BDB830FF1F73
:104730006C2FFF1F80B58AB000AFEFF31083FB61D1
:10474000FB697B620123BB61BB6983F310881A4B51
:104750001B68002B28D03B463B623B6A002B23D0D2
:10476000164B1A683B6A1A60154B1A883B6A9A8086
:104770003B6A41F6A122DA803B6A00229A603B6ADA
:104780009A683B6A9A603B6A20229A813B6A282297
:10479000DA813B6A08221A823B6A28225A82012067
:1047A000396A1422FCF78CFE7B6A7B617B6983F398
:1047B00010882837BD4680BDB830FF1F0800FF1F96
:1047C0000C00FF1F80B584B000AFEFF31083BB6017
:1047D000BB68FB6001237B607B6883F31088304BF0
:1047E0001B68002B54D02F4B1B68002B08D02E4B7E
:1047F0001A682C4B1B6810462C491A46FFF764FEBA
:104800002B4B1B68002B0DD0294B1B68192B09D98A
:10481000254B1A68264B1B68193B104625491A463A
:10482000FFF752FE244B1B68002B05D01E4B1B6864
:1048300018462249FFF748FE214B1B68002B08D081
:10484000194B1A681E4B1B6810461E491A46FFF783
:104850003BFE1D4B1B68013B032B19D801A252F8EC
:1048600023F000BF91480000914800007548000007
:10487000834800000C4B1B6818461449FFF724FEC0
:1048800006E0094B1B6818461149FFF71DFE00BFE3
:10489000FB683B603B6883F310881037BD4680BDE2
:1048A000B830FF1FC830FF1FF845FF1F746A0000B3
:1048B000D030FF1FA86A0000CC30FF1FDC6A000068
:1048C000D430FF1F146B0000B030FF1F486B000096
:1048D000746B000080B58AB000AF03463960FB807E
:1048E000FB88B3F5805F03D3012000F053FB35E074
:1048F000EFF31083FB61FB697B620123BB61BB6942
:1049000083F31088174B1B68002B22D0164B1B68B3
:104910005A1C154B1A6007F108033B623B6A002BD7
:1049200017D0FB8843F480539AB23B6A1A800E4B2F
:104930001B689AB23B6A5A8000F04CFB02463B6A05
:104940005A603B6A3A689A600120396A0C22FCF787
:10495000B7FD7B6A7B617B6983F310882837BD468E
:1049600080BD00BFB830FF1FBC30FF1F80B58EB0C8
:1049700000AF0346B9607A60FB81FB89B3F5805FC5
:1049800003D3012000F006FB38E0EFF31083FB6255
:10499000FB6A7B630123BB62BB6A83F31088194BFC
:1049A0001B68002B25D0184B1B685A1C164B1A602D
:1049B00007F114033B633B6B002B1AD0FB8943F4D4
:1049C00000539AB23B6B1A800F4B1B689AB23B6B39
:1049D0005A8000F0FFFA02463B6B5A603B6BBA68A4
:1049E0009A603B6B7A68DA600120396B1022FCF721
:1049F00067FD7B6B7B627B6A83F310883837BD462B
:104A000080BD00BFB830FF1FBC30FF1F80B58EB027
:104A100000AFB9607A603B600346FB81FB89B3F568
:104A2000805F03D3012000F0B5FA3BE0EFF3108381
:104A3000FB62FB6A7B630123BB62BB6A83F3108862
:104A40001A4B1B68002B28D0194B1B685A1C184B9B
:104A50001A6007F110033B633B6B002B1DD0FB89F1
:104A600043F440539AB23B6B1A80114B1B689AB2C5
:104A70003B6B5A8000F0AEFA02463B6B5A603B6BD0
:104A8000BA689A603B6B7A68DA603B6B3A681A6185
:104A90000120396B1422FCF713FD7B6B7B627B6A70
:104AA00083F310883837BD4680BD00BFB830FF1F84
:104AB000BC30FF1F0EB480B59DB000AF7860B7F872
:104AC0007C30B3F5805F03D3012000F063FA54E03B
:104AD000EFF31083BB65BB6DBB6601237B657B6D0C
:104AE00083F31088284B1B68002B41D07B6802336E
:104AF0009B007B66254B1B685A1C244B1A6007F1F0
:104B000008033B663B6E002B32D07B689BB21B03D5
:104B10009AB2B7F87C3013439AB23B6E1A801B4BA3
:104B20001B689AB23B6E5A8000F054FA02463B6E04
:104B30005A6007F18003FB640023FB660EE0FB6E06
:104B400002339B003A6E1344FB65FB6C1A1DFA643A
:104B50001A68FB6D1A60FB6E0133FB66FA6E7B68A8
:104B60009A42ECDB7B6E0120396E1A46FCF7A8FCFA
:104B7000BB6E3B653B6D83F310887437BD46BDE863
:104B8000804003B0704700BFB830FF1FBC30FF1F2C
:104B90000CB480B586B002AF78600B467B8007F11D
:104BA0001C03FB607B8807F10C02009278681946B1
:104BB0000022BB6900F006F81037BD46BDE8804012
:104BC00002B0704780B5A4B000AFF8607A603B6077
:104BD0000B467B810023C7F880307B89B3F5805F6B
:104BE00003D3012000F0D6F9E1E00023C7F88C30B0
:104BF00004E0D7F88C300133C7F88C30D7F88C300C
:104C00003A6813441B78002B03D0D7F88C30332B31
:104C1000EFDDD7F88C300433002B00DA03339B1020
:104C2000FB677B68002B02D0FB680133FB60FB68ED
:104C30009B00C7F88030FA6FFB681344C7F88830D0
:104C4000D7F888300F2B15DDD7F888300F3B9B0045
:104C5000BB67584B1B68BA6F9A4202D9554BBA6F63
:104C60001A600F23C7F88830D7F88030C3F13C03AF
:104C7000C7F88C30EFF310833B663B6E7B670123F4
:104C8000FB65FB6D83F310884B4B1B68002B00F01A
:104C90008980D7F8883002339B003B67474B1B68FD
:104CA0005A1C464B1A6007F11403FB66FB6E002B7F
:104CB00078D0D7F888309BB21B039AB27B89134314
:104CC0009AB2FB6E1A803D4B1B689AB2FB6E5A80FB
:104CD00000F080F90246FB6E5A60FB6E0833BB663B
:104CE0000023C7F8843021E07B68002B0BD0D7F875
:104CF0008430002B07D1D7F884309B00BA6E134460
:104D00007A681A600DE0D7F884309B00BA6E1A44B6
:104D1000D7F898301B68181DD7F8981008601B68E2
:104D20001360D7F884300133C7F88430D7F8842073
:104D3000FB689A42D8DBFB6E08337B660023C7F81A
:104D4000843012E0D7F88020D7F8843013447A6E8C
:104D50001344D7F8842039680A441278D2B21A7002
:104D6000D7F884300133C7F88430D7F88420D7F8D7
:104D70008C309A42E6DBD7F88030C3F13C02D7F89A
:104D80008C309A4208DDD7F88020D7F88C30134455
:104D90007A6E134400221A703B6F0120F96E1A4696
:104DA000FCF78EFB7B6FBB65BB6D83F31088903780
:104DB000BD4680BDD430FF1FB830FF1FBC30FF1F81
:104DC00080B48BB000AF78603960EFF310833B6143
:104DD0003B69FB610123FB60FB6883F310883A4B5E
:104DE0001B683B6200237B6210E07B6A9B089A0091
:104DF000364B1344BB61BB691A687B689A4202D187
:104E00007B6A3B6207E07B6A20337B622E4B1B6828
:104E10007A6A9A42E9D33B6AB3F5A06F44D23B6AFF
:104E20009A087968294B43F822103B6A1A1D274BD0
:104E300013447B6100237B6212E07A697B6A13442E
:104E400039687A6A0A441278D2B21A703A687B6A70
:104E500013441B78002B00D105E07B6A01337B6291
:104E60007B6A182BE9D902E07B6A01337B623A68DE
:104E70007B6A13441B78002B02D07B6A7F2BF3D90B
:104E8000134B1B687A6A9A4202D9114B7A6A1A60EC
:104E90000D4B1B683A6A9A420BD10B4B1B6803F10E
:104EA0002002094B1A6004E00A4B1B685A1C094B8C
:104EB0001A60FB69BB60BB6883F310882C37BD4662
:104EC0005DF8047B704700BF682FFF1F682AFF1F33
:104ED000D030FF1FC830FF1F80B48BB000AF7860A8
:104EE0003960EFF310837B617B69FB6101233B61D8
:104EF0003B6983F31088244B1B683B6200237B6271
:104F000010E07B6A9B089A00204B1344BB61BB698D
:104F10001A687B689A4202D17B6A3B6207E07B6A2F
:104F200008337B62184B1B687A6A9A42E9D33B6A62
:104F3000B3F5A07F18D23B6A9A087968134B43F8FF
:104F400022103B6A9B085A1C104B396843F8221008
:104F50000D4B1B683A6A9A420BD10B4B1B6803F14D
:104F60000802094B1A6004E0094B1B685A1C084BE5
:104F70001A60FB69FB60FB6883F310882C37BD4621
:104F80005DF8047B704700BFAC30FF1F6C2FFF1F24
:104F9000CC30FF1F80B582B000AF78600A4B1B6831
:104FA000002B0DD1084B7A681A60FFF70BFC074BFA
:104FB0001B6818460649FFF787FA0020FFF7D8FA62
:104FC0000837BD4680BD00BFB030FF1FF845FF1F4A
:104FD000A86B000080B400AF034B1B681846BD46A9
:104FE0005DF8047B704700BF041000E080B582B01C
:104FF00002AF0B4B1B68002B03D10A4B1A68084BFE
:105000001A60074B1B6801220092002201920420C3
:1050100002211A464FF47A73FFF74CFDBD4680BD5E
:10502000C430FF1F1800FF1F80B483B000AF78604A
:10503000074B074A126822F440217A68920402F46E
:1050400040220A431A600C37BD465DF8047B704766
:105050000070044080B483B000AF78600A490A4B06
:1050600003F5805304331B6823F440327B681B0430
:1050700003F440331A4301F5805304331A600C37AC
:10508000BD465DF8047B70470070044080B485B075
:1050900000AF786039607B681B78FB73FB7B03F0A3
:1050A0005F03FB733B681A78FB7B1343FB737B68DE
:1050B000FA7B1A701437BD465DF8047B704700BF59
:1050C00080B485B000AF78600B46FB707B681B78BE
:1050D000FB73FB7B23F00F03FB73FA7BFB7813431B
:1050E000FB737B68FA7B1A701437BD465DF8047B4E
:1050F000704700BF80B582B000AF194B1B7BDBB29D
:1051000003F00303012B12D0012B02D3022B1CD07E
:105110001EE0144B1B68002B05D11348E821134AED
:10512000134B00F0A1FB0F4B1B687B6013E0114B8E
:105130001B68002B05D10C48ED210C4A0E4B00F0EA
:1051400093FB0C4B1B687B6005E00C4B7B6002E023
:1051500000237B6000BF7B6818460837BD4680BDD2
:10516000004006400046FF1FCC6B00004477000063
:10517000E46B0000FC45FF1FF06B0000006CDC02DC
:1051800080B582B000AFFFF7B5FF78607B68002B79
:1051900001D17B684EE0294B1B78DBB203F038036A
:1051A000DB08FB70FB787A6822FA03F37B60234B01
:1051B0005B78DBB203F030031B09BB701F4B1B7B1A
:1051C000DBB203F003037B70BB78002B02D07B784B
:1051D000002B02D07B78022B2BD1FB78072B25D814
:1051E00001A151F823F000BF09520000095200004C
:1051F0000952000009520000095200000952000043
:10520000115200001F5200007B685B097B6010E0B8
:105210007A680B4BA3FB02131B097B6009E07A68D9
:10522000084BA3FB0213DB087B6002E000237B60DA
:1052300000BF7B6818460837BD4680BD0040064069
:10524000CDCCCCCCABAAAAAA80B400AF0C4B9B7936
:10525000DBB203F00103002B02D10A4B1B6809E00B
:10526000094B1A68064B1B7ADBB203F00E035B088E
:1052700022FA03F31846BD465DF8047B704700BF71
:10528000004006401000FF1F1400FF1F80B500AF54
:10529000074B9B79DBB203F010031B09002B03D1F2
:1052A000FFF76EFF034601E0024B1B68184680BD06
:1052B000004006401000FF1F80B500AFFFF71AFF47
:1052C0000346184680BD00BF80B485B000AF78604B
:1052D0007A6849F697039A4202D80023FB7308E0E4
:1052E0007A68074B9A4202D80123FB7301E002233C
:1052F000FB73FB7B18461437BD465DF8047B704793
:1053000000127A0080B500AF00F028F80246054B85
:1053100003F5825304331B681B0F0133B2FBF3F315
:10532000184680BD0070044080B582B000AF786040
:10533000094B7A68526803F5825304331A607B681C
:105340001B781846FFF786FE7B685B781846FFF7E8
:105350006BFE0837BD4680BD0070044080B582B04A
:1053600000AF164B9B79DBB203F00C039B083B604C
:105370003B68032B1AD801A252F823F09553000082
:105380009D530000A55300008D53000000F052F81B
:1053900078600EE000F014F878600AE0FFF754FF40
:1053A000786006E0FFF7A6FE786002E000237B60ED
:1053B00000BF7B6818460837BD4680BD00400640E8
:1053C00080B582B000AF194B5B78DBB203F002030B
:1053D000002B06D1154B9B79DBB203F02003002B89
:1053E00001D000231DE0FFF751FF78607B68002BA0
:1053F00001D17B6815E00D4BDB78DBB203F0600375
:105400005B09FB70094BDB78DBB2DB09BB70F97819
:10541000BA78074B49000A4433F812307A6802FB25
:1054200003F318460837BD4680BD00BF0040064064
:105430005C77000080B582B000AF184B9B79DBB27F
:1054400003F04003002B01D1002322E0FFF734FFDB
:1054500078607B68002B06D111484FF42171114A06
:10546000114B00F001FA0D4B1B79DBB203F01F0367
:1054700001337A68B2FBF3F37B60084B5B79DBB2F4
:1054800003F01F0303F118027B6802FB03F37B6048
:105490007B6818460837BD4680BD00BF0040064007
:1054A000CC6B00006C770000006C000080B485B00D
:1054B00000AF0346FB71174B1B7BDBB203F003020B
:1054C000FB799A4202D00123FB7301E00023FB73B6
:1054D000104B104A127BD2B222F00302D1B2FA79F9
:1054E00002F00302D2B20A43D2B21A73FB7B002B42
:1054F00009D040F2DC53BB6000E000BFBB685A1E1D
:10550000BA60002BF9D1002318461437BD465DF868
:10551000047B70470040064080B485B000AF13465E
:105520000246FA710A46BA717B713B4B9B79DBB23A
:1055300003F00C039B08FB60374B9B79DBB203F055
:105540000103FB72344B1B7ADBB203F00E035B08E2
:10555000BB727A79BB7A9A422CD0FB7A012B19D193
:10556000FB68012B06D02C4B1B78DBB203F0020347
:10557000002B0FD0284B284A5278D2B222F00102D9
:10558000D2B25A7000BF244B9B79DBB203F0010307
:10559000002BF8D1204B204A127AD2B222F02F02EF
:1055A000D1B27A795200D2B202F00E02D2B20A43DC
:1055B000D2B21A72184B184A5278D2B222F00102B3
:1055C000D1B2BA7902F00102D2B20A43D2B25A7011
:1055D000114B114A1278D2B222F00302D1B2FA79F9
:1055E0000A43D2B21A70FB68012B04D0FB7903F096
:1055F0000203002B08D000BF074B9B79DBB203F0FE
:105600000102BB799A42F7D1002318461437BD46F0
:105610005DF8047B704700BF0040064080B584B051
:1056200000AF78607B68002B06D11D484FF45171A4
:105630001C4A1D4B00F018F90023FB737B685B7854
:1056400003F01F03DAB2FB7B1343FB73174BFA7BA8
:105650001A71164B154A5279D2B222F01F02D1B2FA
:105660007A68927802F01F02D2B20A43D2B25A711B
:105670000E4B0E4A1279D1B27A6812780A43D2B22E
:1056800042F04002D2B21A7100BF084B9B79DBB2E4
:1056900003F04003002BF8D01037BD4680BD00BF9B
:1056A000CC6B0000807700000C6C000000400640CE
:1056B00080B584B000AF78607B681B681846FFF740
:1056C00003FE0346FB737B681B791A481946FFF7F4
:1056D000F7FC7B68063317481946FFF7D7FC164BD3
:1056E000154A5278D2B222F03C02D1B2FA7B1201B2
:1056F000D2B202F03002D2B20A43D1B27A68527901
:105700000A43D2B25A707B685B79002B0ED0094BEA
:105710001B78DBB2DBB25BB2002B07DA00BF064BB3
:105720009B79DBB203F00203002BF8D01037BD46A3
:1057300080BD00BF005006400040064080B582B0EA
:1057400000AF03463960FB713B68002B06D125484A
:105750004FF4BA61244A254B00F086F8244B244AC2
:105760005278D2B222F00202D2B25A70204B204AB2
:105770001278D2B202F03B02D2B262F07F02D2B211
:105780001A7000BF1A4B9B79DBB203F01C03082B85
:10579000F8D1174B164A5279D2B222F04002D2B257
:1057A0005A7100BF124B9B79DBB203F02003002B30
:1057B000F8D13868FFF732FF0D4B0D4A5279D2B25B
:1057C00042F04002D2B25A7100BF094B9B79DBB262
:1057D00003F02003002BF8D0002318460837BD46FD
:1057E00080BD00BFCC6B0000947700000C6C000003
:1057F0000040064080B582B000AF0B463A600246DA
:10580000FA71BB713B68002B06D1134840F27A61F4
:10581000124A134B00F028F8FB791846FFF746FEB2
:10582000BB7918463968FFF789FF0E4B0D4A12788D
:10583000D2B202F03F02D2B21A7000BF094B9B797C
:10584000DBB203F00C039B08032BF7D100231846AF
:105850000837BD4680BD00BFCC6B0000A8770000B4
:105860000C6C00000040064080B586B002AFF860C6
:10587000B9607A603B607B68009304483968FA68D5
:10588000BB68FAF7A7FF00BEFDE700BF146C00007D
:1058900080B483B000AF78607B681B68DB0FDBB23D
:1058A00018460C37BD465DF8047B704780B582B062
:1058B00000AF786039607868FFF7EAFF0346002B95
:1058C00005D0074B1B6878683968984704E0054B9A
:1058D0001B687868396898470837BD4680BD00BFA7
:1058E000E430FF1FE830FF1F80B500AF084B1B6896
:1058F000002B06D1074840F25661074A074BFFF7D5
:10590000B3FF034B1B6806481946FFF7CFFF80BD66
:10591000D830FF1F546C0000BC770000D06C000032
:1059200000C0024080B500AF084B5B68002B06D179
:10593000074840F25E61074A074BFFF795FF034BAC
:105940005B6806481946FFF7B1FF80BDD830FF1FDE
:10595000546C0000D4770000E06C000000D00240DE
:1059600080B500AF084B9B68002B06D1074840F27A
:105970006661074A074BFFF777FF034B9B680648B2
:105980001946FFF793FF80BDD830FF1F546C00000D
:10599000EC770000F06C000000C00A4090B589B0C0
:1059A00000AF78607B68002B06D1504840F235315B
:1059B0004F4A504BFFF758FF7B689B687A68127C10
:1059C000DA777B68DB68002B0DD17B681B68002BC6
:1059D00009D07B681C687B685B687868194601227F
:1059E0000023A0477EE07B689A687B681B7C5B0194
:1059F000134403F5805318331B687B617B689A68F6
:105A00007B681B7C5B01134403F5805318339B8830
:105A10009BB203F08003002B0CBF00230123FB7417
:105A20007B68DB687A69D31A7B617B695B09FB6001
:105A3000FB7C002B02D0FB68FB760EE0FB68002BA2
:105A400004D0FB68DBB2013BDBB205E07B681B7D69
:105A5000DBB2DBB2013BDBB2FB76FA7E7B685B7CC0
:105A6000DBB25BB29A4212D17B68DB7CDAB27B6834
:105A70001B7DDBB252B25BB29A4205D17B68DB7C04
:105A8000DBB25BB2FB6113E00023FB6110E0FA7E46
:105A90007B685B7CDBB25BB2D31AFB61FB69002BDA
:105AA00006DA7B681B7DDBB25BB2FA691344FB61EB
:105AB000FA7E7B685A747B68DB7CDBB2DAB2FB6906
:105AC000DBB2D31ADBB2DAB27B68DA747B681B68AC
:105AD000002B07D07B681C687B685968FB69FA7CDF
:105AE0007868A0472437BD4690BD00BF006D000018
:105AF00004780000F86D000080B500AF024B1B6811
:105B00001846FFF74BFF80BDEC30FF1F80B500AF9C
:105B1000024B5B681846FFF741FF80BDEC30FF1F6A
:105B200080B500AF024B9B681846FFF737FF80BD7A
:105B3000EC30FF1F80B500AF024BDB681846FFF763
:105B40002DFF80BDEC30FF1F80B500AF024B1B69FD
:105B50001846FFF723FF80BDEC30FF1F80B500AF74
:105B6000024B5B691846FFF719FF80BDEC30FF1F41
:105B700080B500AF024B9B691846FFF70FFF80BD51
:105B8000EC30FF1F80B500AF024BDB691846FFF712
:105B900005FF80BDEC30FF1F80B500AF024B1B6AD4
:105BA0001846FFF7FBFE80BDEC30FF1F80B500AF4D
:105BB000024B5B6A1846FFF7F1FE80BDEC30FF1F19
:105BC00080B500AF024B9B6A1846FFF7E7FE80BD29
:105BD000EC30FF1F80B500AF024BDB6A1846FFF7C1
:105BE000DDFE80BDEC30FF1F80B500AF024B1B6BAC
:105BF0001846FFF7D3FE80BDEC30FF1F80B500AF25
:105C0000024B5B6B1846FFF7C9FE80BDEC30FF1FEF
:105C100080B500AF024B9B6B1846FFF7BFFE80BDFF
:105C2000EC30FF1F80B500AF024BDB6B1846FFF76F
:105C3000B5FE80BDEC30FF1F80B500AF034B1B6885
:105C4000034A126803481146984780BD3031FF1F50
:105C50002C31FF1F00000C4080B500AF034B1B68C8
:105C6000034A126803481146984780BD3431FF1F2C
:105C70002C31FF1F00000C4080B500AF034B1B68A8
:105C8000034A126803481146984780BD3831FF1F08
:105C90002C31FF1F00000C4080B500AF034B1B6888
:105CA000034A126803481146984780BD3C31FF1FE4
:105CB0002C31FF1F00000C4080B500AF094B1B6862
:105CC000002B06D1084840F23C51084A084BFFF728
:105CD000CBFD084B1B68034A1268074811469847DA
:105CE00080BD00BF4031FF1F446F000014780000EA
